{
    "_format": "hh-sol-artifact-1",
    "contractName": "DecenMessaging",
    "sourceName": "contracts/DecenMessaging.sol",
    "abi": [
        {
            "inputs": [],
            "stateMutability": "nonpayable",
            "type": "constructor"
        },
        {
            "anonymous": false,
            "inputs": [
                {
                    "indexed": false,
                    "internalType": "uint256",
                    "name": "messageNumber",
                    "type": "uint256"
                },
                {
                    "indexed": false,
                    "internalType": "address",
                    "name": "from",
                    "type": "address"
                },
                {
                    "indexed": false,
                    "internalType": "address",
                    "name": "to",
                    "type": "address"
                }
            ],
            "name": "MessageDeleted",
            "type": "event"
        },
        {
            "anonymous": false,
            "inputs": [
                {
                    "indexed": false,
                    "internalType": "uint256",
                    "name": "messageNumber",
                    "type": "uint256"
                },
                {
                    "indexed": false,
                    "internalType": "address",
                    "name": "from",
                    "type": "address"
                },
                {
                    "indexed": false,
                    "internalType": "address",
                    "name": "to",
                    "type": "address"
                },
                {
                    "indexed": false,
                    "internalType": "uint256",
                    "name": "timestamp",
                    "type": "uint256"
                }
            ],
            "name": "MessageSent",
            "type": "event"
        },
        {
            "inputs": [],
            "name": "admin",
            "outputs": [
                {
                    "internalType": "address",
                    "name": "",
                    "type": "address"
                }
            ],
            "stateMutability": "view",
            "type": "function"
        },
        {
            "inputs": [
                {
                    "internalType": "uint256",
                    "name": "messageNumber",
                    "type": "uint256"
                }
            ],
            "name": "deleteReceivedMessage",
            "outputs": [],
            "stateMutability": "nonpayable",
            "type": "function"
        },
        {
            "inputs": [
                {
                    "internalType": "uint256",
                    "name": "messageNumber",
                    "type": "uint256"
                }
            ],
            "name": "deleteSentMessage",
            "outputs": [],
            "stateMutability": "nonpayable",
            "type": "function"
        },
        {
            "inputs": [
                {
                    "internalType": "address",
                    "name": "",
                    "type": "address"
                },
                {
                    "internalType": "uint256",
                    "name": "",
                    "type": "uint256"
                }
            ],
            "name": "fromUser",
            "outputs": [
                {
                    "internalType": "uint256",
                    "name": "messageNumber",
                    "type": "uint256"
                },
                {
                    "internalType": "address",
                    "name": "sender",
                    "type": "address"
                },
                {
                    "internalType": "address",
                    "name": "receiver",
                    "type": "address"
                },
                {
                    "internalType": "uint256",
                    "name": "timestamp",
                    "type": "uint256"
                },
                {
                    "internalType": "string",
                    "name": "textMessage",
                    "type": "string"
                }
            ],
            "stateMutability": "view",
            "type": "function"
        },
        {
            "inputs": [],
            "name": "messageCount",
            "outputs": [
                {
                    "internalType": "uint256",
                    "name": "",
                    "type": "uint256"
                }
            ],
            "stateMutability": "view",
            "type": "function"
        },
        {
            "inputs": [],
            "name": "messageLength",
            "outputs": [
                {
                    "internalType": "uint256",
                    "name": "",
                    "type": "uint256"
                }
            ],
            "stateMutability": "view",
            "type": "function"
        },
        {
            "inputs": [
                {
                    "internalType": "address",
                    "name": "to",
                    "type": "address"
                },
                {
                    "internalType": "string",
                    "name": "message",
                    "type": "string"
                }
            ],
            "name": "sendMessage",
            "outputs": [],
            "stateMutability": "nonpayable",
            "type": "function"
        },
        {
            "inputs": [
                {
                    "internalType": "uint256",
                    "name": "_messageLimit",
                    "type": "uint256"
                }
            ],
            "name": "setMessageLimit",
            "outputs": [],
            "stateMutability": "nonpayable",
            "type": "function"
        },
        {
            "inputs": [
                {
                    "internalType": "address",
                    "name": "newAdmin",
                    "type": "address"
                }
            ],
            "name": "setNewAdmin",
            "outputs": [],
            "stateMutability": "nonpayable",
            "type": "function"
        },
        {
            "inputs": [
                {
                    "internalType": "address",
                    "name": "",
                    "type": "address"
                },
                {
                    "internalType": "uint256",
                    "name": "",
                    "type": "uint256"
                }
            ],
            "name": "toUser",
            "outputs": [
                {
                    "internalType": "uint256",
                    "name": "messageNumber",
                    "type": "uint256"
                },
                {
                    "internalType": "address",
                    "name": "sender",
                    "type": "address"
                },
                {
                    "internalType": "address",
                    "name": "receiver",
                    "type": "address"
                },
                {
                    "internalType": "uint256",
                    "name": "timestamp",
                    "type": "uint256"
                },
                {
                    "internalType": "string",
                    "name": "textMessage",
                    "type": "string"
                }
            ],
            "stateMutability": "view",
            "type": "function"
        },
        {
            "inputs": [
                {
                    "internalType": "address",
                    "name": "to",
                    "type": "address"
                }
            ],
            "name": "viewReceivedMessages",
            "outputs": [
                {
                    "components": [
                        {
                            "internalType": "uint256",
                            "name": "messageNumber",
                            "type": "uint256"
                        },
                        {
                            "internalType": "address",
                            "name": "sender",
                            "type": "address"
                        },
                        {
                            "internalType": "address",
                            "name": "receiver",
                            "type": "address"
                        },
                        {
                            "internalType": "uint256",
                            "name": "timestamp",
                            "type": "uint256"
                        },
                        {
                            "internalType": "string",
                            "name": "textMessage",
                            "type": "string"
                        }
                    ],
                    "internalType": "struct DecenMessaging.Message[]",
                    "name": "",
                    "type": "tuple[]"
                }
            ],
            "stateMutability": "view",
            "type": "function"
        },
        {
            "inputs": [
                {
                    "internalType": "address",
                    "name": "from",
                    "type": "address"
                }
            ],
            "name": "viewSentMessages",
            "outputs": [
                {
                    "components": [
                        {
                            "internalType": "uint256",
                            "name": "messageNumber",
                            "type": "uint256"
                        },
                        {
                            "internalType": "address",
                            "name": "sender",
                            "type": "address"
                        },
                        {
                            "internalType": "address",
                            "name": "receiver",
                            "type": "address"
                        },
                        {
                            "internalType": "uint256",
                            "name": "timestamp",
                            "type": "uint256"
                        },
                        {
                            "internalType": "string",
                            "name": "textMessage",
                            "type": "string"
                        }
                    ],
                    "internalType": "struct DecenMessaging.Message[]",
                    "name": "",
                    "type": "tuple[]"
                }
            ],
            "stateMutability": "view",
            "type": "function"
        }
    ],
    "bytecode": "0x6080604052606460015534801561001557600080fd5b50336000806101000a81548173ffffffffffffffffffffffffffffffffffffffff021916908373ffffffffffffffffffffffffffffffffffffffff160217905550612100806100656000396000f3fe608060405234801561001057600080fd5b50600436106100b45760003560e01c8063cc7f37aa11610071578063cc7f37aa1461017d578063d10792f8146101ad578063de6f24bb146101e1578063e99fc28b146101fd578063f2cbf1f314610219578063f851a44014610249576100b4565b80631abb5019146100b95780633dbcc8d1146100d5578063702da010146100f35780638eec99c814610127578063a3f5b4f514610143578063b597fe771461015f575b600080fd5b6100d360048036038101906100ce9190611643565b610267565b005b6100dd61053e565b6040516100ea919061167f565b60405180910390f35b61010d600480360381019061010891906116f8565b610544565b60405161011e9594939291906117d7565b60405180910390f35b610141600480360381019061013c9190611831565b61065f565b005b61015d60048036038101906101589190611643565b610730565b005b6101676107c8565b604051610174919061167f565b60405180910390f35b61019760048036038101906101929190611831565b6107ce565b6040516101a491906119fe565b60405180910390f35b6101c760048036038101906101c291906116f8565b610a72565b6040516101d89594939291906117d7565b60405180910390f35b6101fb60048036038101906101f69190611b55565b610b8d565b005b61021760048036038101906102129190611643565b610ece565b005b610233600480360381019061022e9190611831565b611279565b60405161024091906119fe565b60405180910390f35b61025161151d565b60405161025e9190611bb1565b60405180910390f35b6000600360003373ffffffffffffffffffffffffffffffffffffffff1673ffffffffffffffffffffffffffffffffffffffff16815260200190815260200160002082815481106102ba576102b9611bcc565b5b90600052602060002090600502016040518060a0016040529081600082015481526020016001820160009054906101000a900473ffffffffffffffffffffffffffffffffffffffff1673ffffffffffffffffffffffffffffffffffffffff1673ffffffffffffffffffffffffffffffffffffffff1681526020016002820160009054906101000a900473ffffffffffffffffffffffffffffffffffffffff1673ffffffffffffffffffffffffffffffffffffffff1673ffffffffffffffffffffffffffffffffffffffff168152602001600382015481526020016004820180546103a390611c2a565b80601f01602080910402602001604051908101604052809291908181526020018280546103cf90611c2a565b801561041c5780601f106103f15761010080835404028352916020019161041c565b820191906000526020600020905b8154815290600101906020018083116103ff57829003601f168201915b5050505050815250509050600360003373ffffffffffffffffffffffffffffffffffffffff1673ffffffffffffffffffffffffffffffffffffffff168152602001908152602001600020828154811061047857610477611bcc565b5b90600052602060002090600502016000808201600090556001820160006101000a81549073ffffffffffffffffffffffffffffffffffffffff02191690556002820160006101000a81549073ffffffffffffffffffffffffffffffffffffffff021916905560038201600090556004820160006104f59190611541565b50507fb684871d119f615d886d7cdd32615ae3d8980e750ea5dce958d07d5b5866ea0a828260200151836040015160405161053293929190611c5b565b60405180910390a15050565b60025481565b6004602052816000526040600020818154811061056057600080fd5b9060005260206000209060050201600091509150508060000154908060010160009054906101000a900473ffffffffffffffffffffffffffffffffffffffff16908060020160009054906101000a900473ffffffffffffffffffffffffffffffffffffffff16908060030154908060040180546105dc90611c2a565b80601f016020809104026020016040519081016040528092919081815260200182805461060890611c2a565b80156106555780601f1061062a57610100808354040283529160200191610655565b820191906000526020600020905b81548152906001019060200180831161063857829003601f168201915b5050505050905085565b60008054906101000a900473ffffffffffffffffffffffffffffffffffffffff1673ffffffffffffffffffffffffffffffffffffffff163373ffffffffffffffffffffffffffffffffffffffff16146106ed576040517f08c379a00000000000000000000000000000000000000000000000000000000081526004016106e490611d04565b60405180910390fd5b806000806101000a81548173ffffffffffffffffffffffffffffffffffffffff021916908373ffffffffffffffffffffffffffffffffffffffff16021790555050565b60008054906101000a900473ffffffffffffffffffffffffffffffffffffffff1673ffffffffffffffffffffffffffffffffffffffff163373ffffffffffffffffffffffffffffffffffffffff16146107be576040517f08c379a00000000000000000000000000000000000000000000000000000000081526004016107b590611d04565b60405180910390fd5b8060018190555050565b60015481565b60606000600360008473ffffffffffffffffffffffffffffffffffffffff1673ffffffffffffffffffffffffffffffffffffffff16815260200190815260200160002080549050905060008167ffffffffffffffff81111561083357610832611a2a565b5b60405190808252806020026020018201604052801561086c57816020015b610859611581565b8152602001906001900390816108515790505b50905060005b82811015610a6757600360008673ffffffffffffffffffffffffffffffffffffffff1673ffffffffffffffffffffffffffffffffffffffff16815260200190815260200160002081815481106108cb576108ca611bcc565b5b90600052602060002090600502016040518060a0016040529081600082015481526020016001820160009054906101000a900473ffffffffffffffffffffffffffffffffffffffff1673ffffffffffffffffffffffffffffffffffffffff1673ffffffffffffffffffffffffffffffffffffffff1681526020016002820160009054906101000a900473ffffffffffffffffffffffffffffffffffffffff1673ffffffffffffffffffffffffffffffffffffffff1673ffffffffffffffffffffffffffffffffffffffff168152602001600382015481526020016004820180546109b490611c2a565b80601f01602080910402602001604051908101604052809291908181526020018280546109e090611c2a565b8015610a2d5780601f10610a0257610100808354040283529160200191610a2d565b820191906000526020600020905b815481529060010190602001808311610a1057829003601f168201915b505050505081525050828281518110610a4957610a48611bcc565b5b60200260200101819052508080610a5f90611d53565b915050610872565b508092505050919050565b60036020528160005260406000208181548110610a8e57600080fd5b9060005260206000209060050201600091509150508060000154908060010160009054906101000a900473ffffffffffffffffffffffffffffffffffffffff16908060020160009054906101000a900473ffffffffffffffffffffffffffffffffffffffff1690806003015490806004018054610b0a90611c2a565b80601f0160208091040260200160405190810160405280929190818152602001828054610b3690611c2a565b8015610b835780601f10610b5857610100808354040283529160200191610b83565b820191906000526020600020905b815481529060010190602001808311610b6657829003601f168201915b5050505050905085565b60015481511115610bd3576040517f08c379a0000000000000000000000000000000000000000000000000000000008152600401610bca90611de7565b60405180910390fd5b60026000815480929190610be690611d53565b919050555060006040518060a0016040528060025481526020013373ffffffffffffffffffffffffffffffffffffffff1681526020018473ffffffffffffffffffffffffffffffffffffffff168152602001428152602001838152509050600360008473ffffffffffffffffffffffffffffffffffffffff1673ffffffffffffffffffffffffffffffffffffffff1681526020019081526020016000208190806001815401808255809150506001900390600052602060002090600502016000909190919091506000820151816000015560208201518160010160006101000a81548173ffffffffffffffffffffffffffffffffffffffff021916908373ffffffffffffffffffffffffffffffffffffffff16021790555060408201518160020160006101000a81548173ffffffffffffffffffffffffffffffffffffffff021916908373ffffffffffffffffffffffffffffffffffffffff160217905550606082015181600301556080820151816004019081610d649190611fb3565b505050600460003373ffffffffffffffffffffffffffffffffffffffff1673ffffffffffffffffffffffffffffffffffffffff1681526020019081526020016000208190806001815401808255809150506001900390600052602060002090600502016000909190919091506000820151816000015560208201518160010160006101000a81548173ffffffffffffffffffffffffffffffffffffffff021916908373ffffffffffffffffffffffffffffffffffffffff16021790555060408201518160020160006101000a81548173ffffffffffffffffffffffffffffffffffffffff021916908373ffffffffffffffffffffffffffffffffffffffff160217905550606082015181600301556080820151816004019081610e879190611fb3565b5050507f048fe7fb7f676173adbf5a90abbccd6ac9039b2daa74c81dfa961668b5b9305b600254338542604051610ec19493929190612085565b60405180910390a1505050565b6000600460003373ffffffffffffffffffffffffffffffffffffffff1673ffffffffffffffffffffffffffffffffffffffff1681526020019081526020016000208281548110610f2157610f20611bcc565b5b90600052602060002090600502016040518060a0016040529081600082015481526020016001820160009054906101000a900473ffffffffffffffffffffffffffffffffffffffff1673ffffffffffffffffffffffffffffffffffffffff1673ffffffffffffffffffffffffffffffffffffffff1681526020016002820160009054906101000a900473ffffffffffffffffffffffffffffffffffffffff1673ffffffffffffffffffffffffffffffffffffffff1673ffffffffffffffffffffffffffffffffffffffff1681526020016003820154815260200160048201805461100a90611c2a565b80601f016020809104026020016040519081016040528092919081815260200182805461103690611c2a565b80156110835780601f1061105857610100808354040283529160200191611083565b820191906000526020600020905b81548152906001019060200180831161106657829003601f168201915b505050505081525050905060036000826040015173ffffffffffffffffffffffffffffffffffffffff1673ffffffffffffffffffffffffffffffffffffffff16815260200190815260200160002082815481106110e3576110e2611bcc565b5b90600052602060002090600502016000808201600090556001820160006101000a81549073ffffffffffffffffffffffffffffffffffffffff02191690556002820160006101000a81549073ffffffffffffffffffffffffffffffffffffffff021916905560038201600090556004820160006111609190611541565b5050600460003373ffffffffffffffffffffffffffffffffffffffff1673ffffffffffffffffffffffffffffffffffffffff16815260200190815260200160002082815481106111b3576111b2611bcc565b5b90600052602060002090600502016000808201600090556001820160006101000a81549073ffffffffffffffffffffffffffffffffffffffff02191690556002820160006101000a81549073ffffffffffffffffffffffffffffffffffffffff021916905560038201600090556004820160006112309190611541565b50507fb684871d119f615d886d7cdd32615ae3d8980e750ea5dce958d07d5b5866ea0a828260200151836040015160405161126d93929190611c5b565b60405180910390a15050565b60606000600460008473ffffffffffffffffffffffffffffffffffffffff1673ffffffffffffffffffffffffffffffffffffffff16815260200190815260200160002080549050905060008167ffffffffffffffff8111156112de576112dd611a2a565b5b60405190808252806020026020018201604052801561131757816020015b611304611581565b8152602001906001900390816112fc5790505b50905060005b8281101561151257600460008673ffffffffffffffffffffffffffffffffffffffff1673ffffffffffffffffffffffffffffffffffffffff168152602001908152602001600020818154811061137657611375611bcc565b5b90600052602060002090600502016040518060a0016040529081600082015481526020016001820160009054906101000a900473ffffffffffffffffffffffffffffffffffffffff1673ffffffffffffffffffffffffffffffffffffffff1673ffffffffffffffffffffffffffffffffffffffff1681526020016002820160009054906101000a900473ffffffffffffffffffffffffffffffffffffffff1673ffffffffffffffffffffffffffffffffffffffff1673ffffffffffffffffffffffffffffffffffffffff1681526020016003820154815260200160048201805461145f90611c2a565b80601f016020809104026020016040519081016040528092919081815260200182805461148b90611c2a565b80156114d85780601f106114ad576101008083540402835291602001916114d8565b820191906000526020600020905b8154815290600101906020018083116114bb57829003601f168201915b5050505050815250508282815181106114f4576114f3611bcc565b5b6020026020010181905250808061150a90611d53565b91505061131d565b508092505050919050565b60008054906101000a900473ffffffffffffffffffffffffffffffffffffffff1681565b50805461154d90611c2a565b6000825580601f1061155f575061157e565b601f01602090049060005260206000209081019061157d91906115dc565b5b50565b6040518060a0016040528060008152602001600073ffffffffffffffffffffffffffffffffffffffff168152602001600073ffffffffffffffffffffffffffffffffffffffff16815260200160008152602001606081525090565b5b808211156115f55760008160009055506001016115dd565b5090565b6000604051905090565b600080fd5b600080fd5b6000819050919050565b6116208161160d565b811461162b57600080fd5b50565b60008135905061163d81611617565b92915050565b60006020828403121561165957611658611603565b5b60006116678482850161162e565b91505092915050565b6116798161160d565b82525050565b60006020820190506116946000830184611670565b92915050565b600073ffffffffffffffffffffffffffffffffffffffff82169050919050565b60006116c58261169a565b9050919050565b6116d5816116ba565b81146116e057600080fd5b50565b6000813590506116f2816116cc565b92915050565b6000806040838503121561170f5761170e611603565b5b600061171d858286016116e3565b925050602061172e8582860161162e565b9150509250929050565b611741816116ba565b82525050565b600081519050919050565b600082825260208201905092915050565b60005b83811015611781578082015181840152602081019050611766565b60008484015250505050565b6000601f19601f8301169050919050565b60006117a982611747565b6117b38185611752565b93506117c3818560208601611763565b6117cc8161178d565b840191505092915050565b600060a0820190506117ec6000830188611670565b6117f96020830187611738565b6118066040830186611738565b6118136060830185611670565b8181036080830152611825818461179e565b90509695505050505050565b60006020828403121561184757611846611603565b5b6000611855848285016116e3565b91505092915050565b600081519050919050565b600082825260208201905092915050565b6000819050602082019050919050565b6118938161160d565b82525050565b6118a2816116ba565b82525050565b600082825260208201905092915050565b60006118c482611747565b6118ce81856118a8565b93506118de818560208601611763565b6118e78161178d565b840191505092915050565b600060a08301600083015161190a600086018261188a565b50602083015161191d6020860182611899565b5060408301516119306040860182611899565b506060830151611943606086018261188a565b506080830151848203608086015261195b82826118b9565b9150508091505092915050565b600061197483836118f2565b905092915050565b6000602082019050919050565b60006119948261185e565b61199e8185611869565b9350836020820285016119b08561187a565b8060005b858110156119ec57848403895281516119cd8582611968565b94506119d88361197c565b925060208a019950506001810190506119b4565b50829750879550505050505092915050565b60006020820190508181036000830152611a188184611989565b905092915050565b600080fd5b600080fd5b7f4e487b7100000000000000000000000000000000000000000000000000000000600052604160045260246000fd5b611a628261178d565b810181811067ffffffffffffffff82111715611a8157611a80611a2a565b5b80604052505050565b6000611a946115f9565b9050611aa08282611a59565b919050565b600067ffffffffffffffff821115611ac057611abf611a2a565b5b611ac98261178d565b9050602081019050919050565b82818337600083830152505050565b6000611af8611af384611aa5565b611a8a565b905082815260208101848484011115611b1457611b13611a25565b5b611b1f848285611ad6565b509392505050565b600082601f830112611b3c57611b3b611a20565b5b8135611b4c848260208601611ae5565b91505092915050565b60008060408385031215611b6c57611b6b611603565b5b6000611b7a858286016116e3565b925050602083013567ffffffffffffffff811115611b9b57611b9a611608565b5b611ba785828601611b27565b9150509250929050565b6000602082019050611bc66000830184611738565b92915050565b7f4e487b7100000000000000000000000000000000000000000000000000000000600052603260045260246000fd5b7f4e487b7100000000000000000000000000000000000000000000000000000000600052602260045260246000fd5b60006002820490506001821680611c4257607f821691505b602082108103611c5557611c54611bfb565b5b50919050565b6000606082019050611c706000830186611670565b611c7d6020830185611738565b611c8a6040830184611738565b949350505050565b7f6f6e6c792061646d696e2063616e2063616c6c20746869732066756e6374696f60008201527f6e00000000000000000000000000000000000000000000000000000000000000602082015250565b6000611cee602183611752565b9150611cf982611c92565b604082019050919050565b60006020820190508181036000830152611d1d81611ce1565b9050919050565b7f4e487b7100000000000000000000000000000000000000000000000000000000600052601160045260246000fd5b6000611d5e8261160d565b91507fffffffffffffffffffffffffffffffffffffffffffffffffffffffffffffffff8203611d9057611d8f611d24565b5b600182019050919050565b7f4d65737361676520746f6f206c6f6e6700000000000000000000000000000000600082015250565b6000611dd1601083611752565b9150611ddc82611d9b565b602082019050919050565b60006020820190508181036000830152611e0081611dc4565b9050919050565b60008190508160005260206000209050919050565b60006020601f8301049050919050565b600082821b905092915050565b600060088302611e697fffffffffffffffffffffffffffffffffffffffffffffffffffffffffffffffff82611e2c565b611e738683611e2c565b95508019841693508086168417925050509392505050565b6000819050919050565b6000611eb0611eab611ea68461160d565b611e8b565b61160d565b9050919050565b6000819050919050565b611eca83611e95565b611ede611ed682611eb7565b848454611e39565b825550505050565b600090565b611ef3611ee6565b611efe818484611ec1565b505050565b5b81811015611f2257611f17600082611eeb565b600181019050611f04565b5050565b601f821115611f6757611f3881611e07565b611f4184611e1c565b81016020851015611f50578190505b611f64611f5c85611e1c565b830182611f03565b50505b505050565b600082821c905092915050565b6000611f8a60001984600802611f6c565b1980831691505092915050565b6000611fa38383611f79565b9150826002028217905092915050565b611fbc82611747565b67ffffffffffffffff811115611fd557611fd4611a2a565b5b611fdf8254611c2a565b611fea828285611f26565b600060209050601f83116001811461201d576000841561200b578287015190505b6120158582611f97565b86555061207d565b601f19841661202b86611e07565b60005b828110156120535784890151825560018201915060208501945060208101905061202e565b86831015612070578489015161206c601f891682611f79565b8355505b6001600288020188555050505b505050505050565b600060808201905061209a6000830187611670565b6120a76020830186611738565b6120b46040830185611738565b6120c16060830184611670565b9594505050505056fea26469706673582212204d2f0b78c087b3eb7a6335e7d9f09cd7077780b24cc895339108cca6bb33616764736f6c63430008110033",
    "linkReferences": {},
    "deployedLinkReferences": {}
}